{
  "contractName": "DepositHolder",
  "abi": [
    {
      "constant": false,
      "inputs": [
        {
          "name": "newOwner",
          "type": "address"
        }
      ],
      "name": "setOwner",
      "outputs": [
        {
          "name": "success",
          "type": "bool"
        }
      ],
      "payable": false,
      "stateMutability": "nonpayable",
      "type": "function"
    },
    {
      "constant": true,
      "inputs": [],
      "name": "getOwner",
      "outputs": [
        {
          "name": "",
          "type": "address"
        }
      ],
      "payable": false,
      "stateMutability": "view",
      "type": "function"
    },
    {
      "inputs": [
        {
          "name": "_deposit",
          "type": "uint256"
        }
      ],
      "payable": false,
      "stateMutability": "nonpayable",
      "type": "constructor"
    },
    {
      "anonymous": false,
      "inputs": [
        {
          "indexed": true,
          "name": "previousOwner",
          "type": "address"
        },
        {
          "indexed": true,
          "name": "newOwner",
          "type": "address"
        }
      ],
      "name": "LogOwnerSet",
      "type": "event"
    },
    {
      "anonymous": false,
      "inputs": [
        {
          "indexed": true,
          "name": "sender",
          "type": "address"
        },
        {
          "indexed": false,
          "name": "depositWeis",
          "type": "uint256"
        }
      ],
      "name": "LogDepositSet",
      "type": "event"
    },
    {
      "constant": false,
      "inputs": [
        {
          "name": "depositWeis",
          "type": "uint256"
        }
      ],
      "name": "setDeposit",
      "outputs": [
        {
          "name": "success",
          "type": "bool"
        }
      ],
      "payable": false,
      "stateMutability": "nonpayable",
      "type": "function"
    },
    {
      "constant": true,
      "inputs": [],
      "name": "getDeposit",
      "outputs": [
        {
          "name": "weis",
          "type": "uint256"
        }
      ],
      "payable": false,
      "stateMutability": "view",
      "type": "function"
    }
  ],
  "bytecode": "0x6060604052341561000f57600080fd5b6040516020806104e183398101604052808051906020019091905050336000806101000a81548173ffffffffffffffffffffffffffffffffffffffff021916908373ffffffffffffffffffffffffffffffffffffffff1602179055506000811415151561007b57600080fd5b806001819055505061044f806100926000396000f300606060405260043610610062576000357c0100000000000000000000000000000000000000000000000000000000900463ffffffff16806313af403514610067578063893d20e8146100b8578063c399ec881461010d578063f5bade6614610136575b600080fd5b341561007257600080fd5b61009e600480803573ffffffffffffffffffffffffffffffffffffffff16906020019091905050610171565b604051808215151515815260200191505060405180910390f35b34156100c357600080fd5b6100cb610314565b604051808273ffffffffffffffffffffffffffffffffffffffff1673ffffffffffffffffffffffffffffffffffffffff16815260200191505060405180910390f35b341561011857600080fd5b61012061033d565b6040518082815260200191505060405180910390f35b341561014157600080fd5b6101576004808035906020019091905050610347565b604051808215151515815260200191505060405180910390f35b60003373ffffffffffffffffffffffffffffffffffffffff166000809054906101000a900473ffffffffffffffffffffffffffffffffffffffff1673ffffffffffffffffffffffffffffffffffffffff161415156101ce57600080fd5b60008273ffffffffffffffffffffffffffffffffffffffff16141515156101f457600080fd5b6000809054906101000a900473ffffffffffffffffffffffffffffffffffffffff1673ffffffffffffffffffffffffffffffffffffffff168273ffffffffffffffffffffffffffffffffffffffff161415151561025057600080fd5b816000806101000a81548173ffffffffffffffffffffffffffffffffffffffff021916908373ffffffffffffffffffffffffffffffffffffffff1602179055506000809054906101000a900473ffffffffffffffffffffffffffffffffffffffff1673ffffffffffffffffffffffffffffffffffffffff163373ffffffffffffffffffffffffffffffffffffffff167fa1d2149652d81eb35c360c115fc7ac594124cb1ea8a5a33e9a7f5768c62869fb60405160405180910390a360019050919050565b60008060009054906101000a900473ffffffffffffffffffffffffffffffffffffffff16905090565b6000600154905090565b60003373ffffffffffffffffffffffffffffffffffffffff166000809054906101000a900473ffffffffffffffffffffffffffffffffffffffff1673ffffffffffffffffffffffffffffffffffffffff161415156103a457600080fd5b600082141515156103b457600080fd5b81600154141515156103c557600080fd5b816001819055503373ffffffffffffffffffffffffffffffffffffffff167ffa53ebd539f52eb4ef352ffacb2f8f5f8080cd8bb7ebb2f1acab3e1ce4bd65cb836040518082815260200191505060405180910390a2600190509190505600a165627a7a72305820bbb4a12f87cb5cf75fe88de2ab84a29116c7a5fac89e2e3dc06b4329970832620029",
  "source": "pragma solidity ^0.4.21;\n\nimport \"./interfaces/DepositHolderI.sol\";\nimport \"./Owned.sol\";\n\ncontract DepositHolder is DepositHolderI, Owned {\n    uint private currentDeposit;\n\n    function DepositHolder(uint _deposit)\n    public\n    {\n        require(_deposit != 0);\n\n        currentDeposit = _deposit;\n    }\n\n    function setDeposit(uint depositWeis)\n    fromOwner\n    public\n    returns(bool success)\n    {\n        require(depositWeis != 0);\n        require (currentDeposit != depositWeis);\n\n        currentDeposit = depositWeis;\n        emit LogDepositSet(msg.sender, depositWeis);\n        return true;\n    }\n\n    function getDeposit()\n    constant\n    public\n    returns(uint weis)\n    {\n        return currentDeposit;\n    }\n}",
  "sourcePath": "/home/vagrant/DAPPS/contracts/DepositHolder.sol",
  "compiler": {
    "name": "solc",
    "version": "0.4.21+commit.dfe3193c.Emscripten.clang"
  },
  "schemaVersion": "2.0.0",
  "updatedAt": "2018-07-02T14:38:41.117Z"
}