{
  "contractName": "MultiplierHolder",
  "abi": [
    {
      "constant": false,
      "inputs": [
        {
          "name": "newOwner",
          "type": "address"
        }
      ],
      "name": "setOwner",
      "outputs": [
        {
          "name": "success",
          "type": "bool"
        }
      ],
      "payable": false,
      "stateMutability": "nonpayable",
      "type": "function"
    },
    {
      "constant": true,
      "inputs": [],
      "name": "getOwner",
      "outputs": [
        {
          "name": "",
          "type": "address"
        }
      ],
      "payable": false,
      "stateMutability": "view",
      "type": "function"
    },
    {
      "inputs": [],
      "payable": false,
      "stateMutability": "nonpayable",
      "type": "constructor"
    },
    {
      "anonymous": false,
      "inputs": [
        {
          "indexed": true,
          "name": "previousOwner",
          "type": "address"
        },
        {
          "indexed": true,
          "name": "newOwner",
          "type": "address"
        }
      ],
      "name": "LogOwnerSet",
      "type": "event"
    },
    {
      "anonymous": false,
      "inputs": [
        {
          "indexed": true,
          "name": "sender",
          "type": "address"
        },
        {
          "indexed": true,
          "name": "vehicleType",
          "type": "uint256"
        },
        {
          "indexed": false,
          "name": "multiplier",
          "type": "uint256"
        }
      ],
      "name": "LogMultiplierSet",
      "type": "event"
    },
    {
      "constant": false,
      "inputs": [
        {
          "name": "vehicleType",
          "type": "uint256"
        },
        {
          "name": "multiplier",
          "type": "uint256"
        }
      ],
      "name": "setMultiplier",
      "outputs": [
        {
          "name": "success",
          "type": "bool"
        }
      ],
      "payable": false,
      "stateMutability": "nonpayable",
      "type": "function"
    },
    {
      "constant": true,
      "inputs": [
        {
          "name": "vehicleType",
          "type": "uint256"
        }
      ],
      "name": "getMultiplier",
      "outputs": [
        {
          "name": "multiplier",
          "type": "uint256"
        }
      ],
      "payable": false,
      "stateMutability": "view",
      "type": "function"
    }
  ],
  "bytecode": "0x6060604052341561000f57600080fd5b336000806101000a81548173ffffffffffffffffffffffffffffffffffffffff021916908373ffffffffffffffffffffffffffffffffffffffff16021790555061049d8061005e6000396000f300606060405260043610610062576000357c0100000000000000000000000000000000000000000000000000000000900463ffffffff16806313af403514610067578063333271d0146100b8578063893d20e8146100fc578063adf8252d14610151575b600080fd5b341561007257600080fd5b61009e600480803573ffffffffffffffffffffffffffffffffffffffff16906020019091905050610188565b604051808215151515815260200191505060405180910390f35b34156100c357600080fd5b6100e2600480803590602001909190803590602001909190505061032b565b604051808215151515815260200191505060405180910390f35b341561010757600080fd5b61010f61042b565b604051808273ffffffffffffffffffffffffffffffffffffffff1673ffffffffffffffffffffffffffffffffffffffff16815260200191505060405180910390f35b341561015c57600080fd5b6101726004808035906020019091905050610454565b6040518082815260200191505060405180910390f35b60003373ffffffffffffffffffffffffffffffffffffffff166000809054906101000a900473ffffffffffffffffffffffffffffffffffffffff1673ffffffffffffffffffffffffffffffffffffffff161415156101e557600080fd5b60008273ffffffffffffffffffffffffffffffffffffffff161415151561020b57600080fd5b6000809054906101000a900473ffffffffffffffffffffffffffffffffffffffff1673ffffffffffffffffffffffffffffffffffffffff168273ffffffffffffffffffffffffffffffffffffffff161415151561026757600080fd5b816000806101000a81548173ffffffffffffffffffffffffffffffffffffffff021916908373ffffffffffffffffffffffffffffffffffffffff1602179055506000809054906101000a900473ffffffffffffffffffffffffffffffffffffffff1673ffffffffffffffffffffffffffffffffffffffff163373ffffffffffffffffffffffffffffffffffffffff167fa1d2149652d81eb35c360c115fc7ac594124cb1ea8a5a33e9a7f5768c62869fb60405160405180910390a360019050919050565b60003373ffffffffffffffffffffffffffffffffffffffff166000809054906101000a900473ffffffffffffffffffffffffffffffffffffffff1673ffffffffffffffffffffffffffffffffffffffff1614151561038857600080fd5b6000831415151561039857600080fd5b816001600085815260200190815260200160002054141515156103ba57600080fd5b816001600085815260200190815260200160002081905550823373ffffffffffffffffffffffffffffffffffffffff167f5e168e70d5925560e1407b68dc2495afbc25b36217cc6e4167b2cf3f28a46ef1846040518082815260200191505060405180910390a36001905092915050565b60008060009054906101000a900473ffffffffffffffffffffffffffffffffffffffff16905090565b6000600160008381526020019081526020016000205490509190505600a165627a7a7230582031f30b0a999a7d1e768099b39b09a6425db9aa24a64ff9850dcf63f65452f6060029",
  "source": "pragma solidity ^0.4.21;\n\nimport \"./interfaces/MultiplierHolderI.sol\";\nimport \"./Owned.sol\";\n\ncontract  MultiplierHolder is MultiplierHolderI, Owned {\n\n    // vehicle types to multipliers\n    mapping(uint => uint) private multipliers;\n\n    function MultiplierHolder()\n    public\n    {\n    }\n\n    function setMultiplier(uint vehicleType, uint multiplier)\n    fromOwner\n    public\n    returns(bool success)\n    {\n        require(vehicleType != 0);\n        require(multipliers[vehicleType] != multiplier);\n\n        multipliers[vehicleType] = multiplier;\n        emit LogMultiplierSet(msg.sender, vehicleType, multiplier);\n        return true;\n    }\n\n    function getMultiplier(uint vehicleType)\n    constant\n    public\n    returns(uint multiplier)\n    {\n        return  multipliers[vehicleType];\n    }\n}",
  "sourcePath": "/home/vagrant/DAPPS/contracts/MultiplierHolder.sol",
  "compiler": {
    "name": "solc",
    "version": "0.4.21+commit.dfe3193c.Emscripten.clang"
  },
  "schemaVersion": "2.0.0",
  "updatedAt": "2018-07-02T14:38:41.114Z"
}