{
  "contractName": "Regulated",
  "abi": [
    {
      "inputs": [
        {
          "name": "_regulator",
          "type": "address"
        }
      ],
      "payable": false,
      "stateMutability": "nonpayable",
      "type": "constructor"
    },
    {
      "anonymous": false,
      "inputs": [
        {
          "indexed": true,
          "name": "previousRegulator",
          "type": "address"
        },
        {
          "indexed": true,
          "name": "newRegulator",
          "type": "address"
        }
      ],
      "name": "LogRegulatorSet",
      "type": "event"
    },
    {
      "constant": false,
      "inputs": [
        {
          "name": "newRegulator",
          "type": "address"
        }
      ],
      "name": "setRegulator",
      "outputs": [
        {
          "name": "success",
          "type": "bool"
        }
      ],
      "payable": false,
      "stateMutability": "nonpayable",
      "type": "function"
    },
    {
      "constant": true,
      "inputs": [],
      "name": "getRegulator",
      "outputs": [
        {
          "name": "regulator",
          "type": "address"
        }
      ],
      "payable": false,
      "stateMutability": "view",
      "type": "function"
    }
  ],
  "bytecode": "0x6060604052341561000f57600080fd5b6040516020806103c183398101604052808051906020019091905050600073ffffffffffffffffffffffffffffffffffffffff168173ffffffffffffffffffffffffffffffffffffffff161415151561006757600080fd5b806000806101000a81548173ffffffffffffffffffffffffffffffffffffffff021916908373ffffffffffffffffffffffffffffffffffffffff1602179055505061030a806100b76000396000f30060606040526004361061004c576000357c0100000000000000000000000000000000000000000000000000000000900463ffffffff168063cde0a4f814610051578063f7e317f4146100a2575b600080fd5b341561005c57600080fd5b610088600480803573ffffffffffffffffffffffffffffffffffffffff169060200190919050506100f7565b604051808215151515815260200191505060405180910390f35b34156100ad57600080fd5b6100b56102b5565b604051808273ffffffffffffffffffffffffffffffffffffffff1673ffffffffffffffffffffffffffffffffffffffff16815260200191505060405180910390f35b6000806000809054906101000a900473ffffffffffffffffffffffffffffffffffffffff1673ffffffffffffffffffffffffffffffffffffffff163373ffffffffffffffffffffffffffffffffffffffff1614151561015557600080fd5b600073ffffffffffffffffffffffffffffffffffffffff168373ffffffffffffffffffffffffffffffffffffffff161415151561019157600080fd5b6000809054906101000a900473ffffffffffffffffffffffffffffffffffffffff1673ffffffffffffffffffffffffffffffffffffffff168373ffffffffffffffffffffffffffffffffffffffff16141515156101ed57600080fd5b6000809054906101000a900473ffffffffffffffffffffffffffffffffffffffff169050826000806101000a81548173ffffffffffffffffffffffffffffffffffffffff021916908373ffffffffffffffffffffffffffffffffffffffff1602179055508273ffffffffffffffffffffffffffffffffffffffff168173ffffffffffffffffffffffffffffffffffffffff167fa32c4b1f26f0d877f643f7fb9db131f9cebf04d120fe5ada74c0bdfc808dab8360405160405180910390a36001915050919050565b60008060009054906101000a900473ffffffffffffffffffffffffffffffffffffffff169050905600a165627a7a72305820633a6b40aa0d84bc8c60bb02c884f34eafe21f9364820114fde199407ad0417e0029",
  "source": "pragma solidity ^0.4.21;\n\nimport \"./interfaces/RegulatedI.sol\";\n\ncontract Regulated is RegulatedI {\n    address private currentRegulator;\n\n    modifier onlyRegulator {\n        require(msg.sender == currentRegulator);\n        _;\n    }\n\n    function Regulated( address _regulator)\n    public\n    {\n     require(_regulator != address(0));\n     currentRegulator = _regulator;\n    }\n\n    function setRegulator(address newRegulator)\n    public\n    onlyRegulator\n    returns(bool success)\n    {\n        require(newRegulator != address(0));\n        require(newRegulator != currentRegulator);\n\n        address regulator = currentRegulator;\n        currentRegulator = newRegulator;\n        emit LogRegulatorSet(regulator, newRegulator);\n        return true;\n    }\n\n    function getRegulator()\n    constant\n    public\n    returns(RegulatorI regulator){\n\n        return RegulatorI(currentRegulator);\n    }\n}",
  "sourcePath": "/home/vagrant/DAPPS/contracts/Regulated.sol",
  "compiler": {
    "name": "solc",
    "version": "0.4.21+commit.dfe3193c.Emscripten.clang"
  },
  "schemaVersion": "2.0.0",
  "updatedAt": "2018-07-02T14:38:41.106Z"
}