{
  "contractName": "Regulator",
  "abi": [
    {
      "constant": false,
      "inputs": [
        {
          "name": "newOwner",
          "type": "address"
        }
      ],
      "name": "setOwner",
      "outputs": [
        {
          "name": "success",
          "type": "bool"
        }
      ],
      "payable": false,
      "stateMutability": "nonpayable",
      "type": "function"
    },
    {
      "constant": true,
      "inputs": [],
      "name": "getOwner",
      "outputs": [
        {
          "name": "",
          "type": "address"
        }
      ],
      "payable": false,
      "stateMutability": "view",
      "type": "function"
    },
    {
      "constant": true,
      "inputs": [
        {
          "name": "",
          "type": "address"
        }
      ],
      "name": "vehicleToType",
      "outputs": [
        {
          "name": "",
          "type": "uint256"
        }
      ],
      "payable": false,
      "stateMutability": "view",
      "type": "function"
    },
    {
      "inputs": [],
      "payable": false,
      "stateMutability": "nonpayable",
      "type": "constructor"
    },
    {
      "anonymous": false,
      "inputs": [
        {
          "indexed": true,
          "name": "previousOwner",
          "type": "address"
        },
        {
          "indexed": true,
          "name": "newOwner",
          "type": "address"
        }
      ],
      "name": "LogOwnerSet",
      "type": "event"
    },
    {
      "anonymous": false,
      "inputs": [
        {
          "indexed": true,
          "name": "sender",
          "type": "address"
        },
        {
          "indexed": true,
          "name": "vehicle",
          "type": "address"
        },
        {
          "indexed": true,
          "name": "vehicleType",
          "type": "uint256"
        }
      ],
      "name": "LogVehicleTypeSet",
      "type": "event"
    },
    {
      "anonymous": false,
      "inputs": [
        {
          "indexed": true,
          "name": "sender",
          "type": "address"
        },
        {
          "indexed": true,
          "name": "newOperator",
          "type": "address"
        },
        {
          "indexed": true,
          "name": "owner",
          "type": "address"
        },
        {
          "indexed": false,
          "name": "depositWeis",
          "type": "uint256"
        }
      ],
      "name": "LogTollBoothOperatorCreated",
      "type": "event"
    },
    {
      "anonymous": false,
      "inputs": [
        {
          "indexed": true,
          "name": "sender",
          "type": "address"
        },
        {
          "indexed": true,
          "name": "operator",
          "type": "address"
        }
      ],
      "name": "LogTollBoothOperatorRemoved",
      "type": "event"
    },
    {
      "constant": false,
      "inputs": [
        {
          "name": "vehicle",
          "type": "address"
        },
        {
          "name": "vehicleType",
          "type": "uint256"
        }
      ],
      "name": "setVehicleType",
      "outputs": [
        {
          "name": "success",
          "type": "bool"
        }
      ],
      "payable": false,
      "stateMutability": "nonpayable",
      "type": "function"
    },
    {
      "constant": true,
      "inputs": [
        {
          "name": "vehicle",
          "type": "address"
        }
      ],
      "name": "getVehicleType",
      "outputs": [
        {
          "name": "vehicleType",
          "type": "uint256"
        }
      ],
      "payable": false,
      "stateMutability": "view",
      "type": "function"
    },
    {
      "constant": false,
      "inputs": [
        {
          "name": "owner",
          "type": "address"
        },
        {
          "name": "deposit",
          "type": "uint256"
        }
      ],
      "name": "createNewOperator",
      "outputs": [
        {
          "name": "newOperator",
          "type": "address"
        }
      ],
      "payable": false,
      "stateMutability": "nonpayable",
      "type": "function"
    },
    {
      "constant": false,
      "inputs": [
        {
          "name": "operator",
          "type": "address"
        }
      ],
      "name": "removeOperator",
      "outputs": [
        {
          "name": "success",
          "type": "bool"
        }
      ],
      "payable": false,
      "stateMutability": "nonpayable",
      "type": "function"
    },
    {
      "constant": true,
      "inputs": [
        {
          "name": "operator",
          "type": "address"
        }
      ],
      "name": "isOperator",
      "outputs": [
        {
          "name": "indeed",
          "type": "bool"
        }
      ],
      "payable": false,
      "stateMutability": "view",
      "type": "function"
    }
  ],
  "bytecode": "0x6060604052341561000f57600080fd5b336000806101000a81548173ffffffffffffffffffffffffffffffffffffffff021916908373ffffffffffffffffffffffffffffffffffffffff1602179055506135a38061005e6000396000f30060606040526004361061008e576000357c0100000000000000000000000000000000000000000000000000000000900463ffffffff1680630d2ce5221461009357806313af4035146100e0578063374bd9ed146101315780636d70f7ae1461018b578063893d20e8146101dc578063ac8a584a14610231578063af91102314610282578063f907f90a14610304575b600080fd5b341561009e57600080fd5b6100ca600480803573ffffffffffffffffffffffffffffffffffffffff16906020019091905050610351565b6040518082815260200191505060405180910390f35b34156100eb57600080fd5b610117600480803573ffffffffffffffffffffffffffffffffffffffff1690602001909190505061039a565b604051808215151515815260200191505060405180910390f35b341561013c57600080fd5b610171600480803573ffffffffffffffffffffffffffffffffffffffff1690602001909190803590602001909190505061053d565b604051808215151515815260200191505060405180910390f35b341561019657600080fd5b6101c2600480803573ffffffffffffffffffffffffffffffffffffffff169060200190919050506106dd565b604051808215151515815260200191505060405180910390f35b34156101e757600080fd5b6101ef610733565b604051808273ffffffffffffffffffffffffffffffffffffffff1673ffffffffffffffffffffffffffffffffffffffff16815260200191505060405180910390f35b341561023c57600080fd5b610268600480803573ffffffffffffffffffffffffffffffffffffffff1690602001909190505061075c565b604051808215151515815260200191505060405180910390f35b341561028d57600080fd5b6102c2600480803573ffffffffffffffffffffffffffffffffffffffff16906020019091908035906020019091905050610908565b604051808273ffffffffffffffffffffffffffffffffffffffff1673ffffffffffffffffffffffffffffffffffffffff16815260200191505060405180910390f35b341561030f57600080fd5b61033b600480803573ffffffffffffffffffffffffffffffffffffffff16906020019091905050610be0565b6040518082815260200191505060405180910390f35b6000600160008373ffffffffffffffffffffffffffffffffffffffff1673ffffffffffffffffffffffffffffffffffffffff168152602001908152602001600020549050919050565b60003373ffffffffffffffffffffffffffffffffffffffff166000809054906101000a900473ffffffffffffffffffffffffffffffffffffffff1673ffffffffffffffffffffffffffffffffffffffff161415156103f757600080fd5b60008273ffffffffffffffffffffffffffffffffffffffff161415151561041d57600080fd5b6000809054906101000a900473ffffffffffffffffffffffffffffffffffffffff1673ffffffffffffffffffffffffffffffffffffffff168273ffffffffffffffffffffffffffffffffffffffff161415151561047957600080fd5b816000806101000a81548173ffffffffffffffffffffffffffffffffffffffff021916908373ffffffffffffffffffffffffffffffffffffffff1602179055506000809054906101000a900473ffffffffffffffffffffffffffffffffffffffff1673ffffffffffffffffffffffffffffffffffffffff163373ffffffffffffffffffffffffffffffffffffffff167fa1d2149652d81eb35c360c115fc7ac594124cb1ea8a5a33e9a7f5768c62869fb60405160405180910390a360019050919050565b60003373ffffffffffffffffffffffffffffffffffffffff166000809054906101000a900473ffffffffffffffffffffffffffffffffffffffff1673ffffffffffffffffffffffffffffffffffffffff1614151561059a57600080fd5b600073ffffffffffffffffffffffffffffffffffffffff168373ffffffffffffffffffffffffffffffffffffffff16141515156105d657600080fd5b600082141515156105e657600080fd5b81600160008573ffffffffffffffffffffffffffffffffffffffff1673ffffffffffffffffffffffffffffffffffffffff168152602001908152602001600020541415151561063457600080fd5b81600160008573ffffffffffffffffffffffffffffffffffffffff1673ffffffffffffffffffffffffffffffffffffffff16815260200190815260200160002081905550818373ffffffffffffffffffffffffffffffffffffffff163373ffffffffffffffffffffffffffffffffffffffff167f9f2ee98048ade87cdf829a5e6f1089e5cc01f2afc787ff7e396df2d70e5216ce60405160405180910390a46001905092915050565b6000600260008373ffffffffffffffffffffffffffffffffffffffff1673ffffffffffffffffffffffffffffffffffffffff16815260200190815260200160002060009054906101000a900460ff169050919050565b60008060009054906101000a900473ffffffffffffffffffffffffffffffffffffffff16905090565b60003373ffffffffffffffffffffffffffffffffffffffff166000809054906101000a900473ffffffffffffffffffffffffffffffffffffffff1673ffffffffffffffffffffffffffffffffffffffff161415156107b957600080fd5b600073ffffffffffffffffffffffffffffffffffffffff168273ffffffffffffffffffffffffffffffffffffffff16141515156107f557600080fd5b600260008373ffffffffffffffffffffffffffffffffffffffff1673ffffffffffffffffffffffffffffffffffffffff16815260200190815260200160002060009054906101000a900460ff16151561084d57600080fd5b6000600260008473ffffffffffffffffffffffffffffffffffffffff1673ffffffffffffffffffffffffffffffffffffffff16815260200190815260200160002060006101000a81548160ff0219169083151502179055508173ffffffffffffffffffffffffffffffffffffffff163373ffffffffffffffffffffffffffffffffffffffff167f7253d8f039804cf6934064766e2c63c6939d22caf79d2a54df904eb8b0ffa29560405160405180910390a360019050919050565b6000803373ffffffffffffffffffffffffffffffffffffffff166000809054906101000a900473ffffffffffffffffffffffffffffffffffffffff1673ffffffffffffffffffffffffffffffffffffffff1614151561096657600080fd5b600073ffffffffffffffffffffffffffffffffffffffff168473ffffffffffffffffffffffffffffffffffffffff16141515156109a257600080fd5b6109aa610733565b73ffffffffffffffffffffffffffffffffffffffff168473ffffffffffffffffffffffffffffffffffffffff16141515156109e457600080fd5b600183306109f0610bf8565b80841515151581526020018381526020018273ffffffffffffffffffffffffffffffffffffffff1673ffffffffffffffffffffffffffffffffffffffff1681526020019350505050604051809103906000f0801515610a4e57600080fd5b90508073ffffffffffffffffffffffffffffffffffffffff166313af4035856040518263ffffffff167c0100000000000000000000000000000000000000000000000000000000028152600401808273ffffffffffffffffffffffffffffffffffffffff1673ffffffffffffffffffffffffffffffffffffffff168152602001915050602060405180830381600087803b1515610aea57600080fd5b5af11515610af757600080fd5b50505060405180519050506001600260008373ffffffffffffffffffffffffffffffffffffffff1673ffffffffffffffffffffffffffffffffffffffff16815260200190815260200160002060006101000a81548160ff0219169083151502179055508373ffffffffffffffffffffffffffffffffffffffff168173ffffffffffffffffffffffffffffffffffffffff163373ffffffffffffffffffffffffffffffffffffffff167fae2fe91936c66c7f87615f93bd9630929b5778679dc04d2a466fed57108463a8866040518082815260200191505060405180910390a48091505092915050565b60016020528060005260406000206000915090505481565b60405161296f80610c098339019056006060604052341561000f57600080fd5b60405160608061296f83398101604052808051906020019091908051906020019091908051906020019091905050808284336000806101000a81548173ffffffffffffffffffffffffffffffffffffffff021916908373ffffffffffffffffffffffffffffffffffffffff16021790555080600060146101000a81548160ff02191690831515021790555050600081141515156100ab57600080fd5b8060018190555050600073ffffffffffffffffffffffffffffffffffffffff168173ffffffffffffffffffffffffffffffffffffffff16141515156100ef57600080fd5b80600560006101000a81548173ffffffffffffffffffffffffffffffffffffffff021916908373ffffffffffffffffffffffffffffffffffffffff1602179055505050505061282c806101436000396000f300606060405260043610610133576000357c0100000000000000000000000000000000000000000000000000000000900463ffffffff1680630bbbcbb21461013857806313af40351461018957806316c38b3c146101da578063226dfb42146102175780632c333eab14610290578063333271d0146102e157806339a874861461032557806350295c671461036057806350bb553a146103cc578063552c1e551461041d5780637527b1ca14610460578063893d20e814610501578063954d4add1461055657806399763af6146105a9578063adf8252d146105d2578063b187bd2614610609578063c399ec8814610636578063cb3c4cbc1461065f578063cde0a4f8146106cb578063dd47050f1461071c578063e23d7c5b14610749578063f5bade66146107c2578063f7e317f4146107fd575b600080fd5b341561014357600080fd5b61016f600480803573ffffffffffffffffffffffffffffffffffffffff16906020019091905050610852565b604051808215151515815260200191505060405180910390f35b341561019457600080fd5b6101c0600480803573ffffffffffffffffffffffffffffffffffffffff169060200190919050506109fe565b604051808215151515815260200191505060405180910390f35b34156101e557600080fd5b6101fd60048080351515906020019091905050610ba1565b604051808215151515815260200191505060405180910390f35b341561022257600080fd5b610276600480803573ffffffffffffffffffffffffffffffffffffffff1690602001909190803573ffffffffffffffffffffffffffffffffffffffff16906020019091908035906020019091905050610c3d565b604051808215151515815260200191505060405180910390f35b341561029b57600080fd5b6102c7600480803573ffffffffffffffffffffffffffffffffffffffff16906020019091905050610f80565b604051808215151515815260200191505060405180910390f35b34156102ec57600080fd5b61030b600480803590602001909190803590602001909190505061112d565b604051808215151515815260200191505060405180910390f35b341561033057600080fd5b61034a60048080356000191690602001909190505061122d565b6040518082815260200191505060405180910390f35b341561036b57600080fd5b6103b6600480803573ffffffffffffffffffffffffffffffffffffffff1690602001909190803573ffffffffffffffffffffffffffffffffffffffff1690602001909190505061165d565b6040518082815260200191505060405180910390f35b34156103d757600080fd5b610403600480803573ffffffffffffffffffffffffffffffffffffffff169060200190919050506116e4565b604051808215151515815260200191505060405180910390f35b341561042857600080fd5b61044260048080356000191690602001909190505061173a565b60405180826000191660001916815260200191505060405180910390f35b341561046b57600080fd5b610485600480803560001916906020019091905050611777565b604051808473ffffffffffffffffffffffffffffffffffffffff1673ffffffffffffffffffffffffffffffffffffffff1681526020018373ffffffffffffffffffffffffffffffffffffffff1673ffffffffffffffffffffffffffffffffffffffff168152602001828152602001935050505060405180910390f35b341561050c57600080fd5b610514611826565b604051808273ffffffffffffffffffffffffffffffffffffffff1673ffffffffffffffffffffffffffffffffffffffff16815260200191505060405180910390f35b61058f600480803573ffffffffffffffffffffffffffffffffffffffff169060200190919080356000191690602001909190505061184f565b604051808215151515815260200191505060405180910390f35b34156105b457600080fd5b6105bc611ba0565b6040518082815260200191505060405180910390f35b34156105dd57600080fd5b6105f36004808035906020019091905050611baa565b6040518082815260200191505060405180910390f35b341561061457600080fd5b61061c611bc7565b604051808215151515815260200191505060405180910390f35b341561064157600080fd5b610649611bdd565b6040518082815260200191505060405180910390f35b341561066a57600080fd5b6106b5600480803573ffffffffffffffffffffffffffffffffffffffff1690602001909190803573ffffffffffffffffffffffffffffffffffffffff16906020019091905050611be7565b6040518082815260200191505060405180910390f35b34156106d657600080fd5b610702600480803573ffffffffffffffffffffffffffffffffffffffff16906020019091905050611cf5565b604051808215151515815260200191505060405180910390f35b341561072757600080fd5b61072f611eb7565b604051808215151515815260200191505060405180910390f35b341561075457600080fd5b6107a8600480803573ffffffffffffffffffffffffffffffffffffffff1690602001909190803573ffffffffffffffffffffffffffffffffffffffff16906020019091908035906020019091905050611fc9565b604051808215151515815260200191505060405180910390f35b34156107cd57600080fd5b6107e36004808035906020019091905050612216565b604051808215151515815260200191505060405180910390f35b341561080857600080fd5b6108106122f2565b604051808273ffffffffffffffffffffffffffffffffffffffff1673ffffffffffffffffffffffffffffffffffffffff16815260200191505060405180910390f35b60003373ffffffffffffffffffffffffffffffffffffffff166000809054906101000a900473ffffffffffffffffffffffffffffffffffffffff1673ffffffffffffffffffffffffffffffffffffffff161415156108af57600080fd5b600073ffffffffffffffffffffffffffffffffffffffff168273ffffffffffffffffffffffffffffffffffffffff16141515156108eb57600080fd5b600260008373ffffffffffffffffffffffffffffffffffffffff1673ffffffffffffffffffffffffffffffffffffffff16815260200190815260200160002060009054906101000a900460ff16151561094357600080fd5b6000600260008473ffffffffffffffffffffffffffffffffffffffff1673ffffffffffffffffffffffffffffffffffffffff16815260200190815260200160002060006101000a81548160ff0219169083151502179055508173ffffffffffffffffffffffffffffffffffffffff163373ffffffffffffffffffffffffffffffffffffffff167f5b34220b1e6888774f5c1badf295633d5d8d4ae02d5e3019e422b3debfe8967860405160405180910390a360019050919050565b60003373ffffffffffffffffffffffffffffffffffffffff166000809054906101000a900473ffffffffffffffffffffffffffffffffffffffff1673ffffffffffffffffffffffffffffffffffffffff16141515610a5b57600080fd5b60008273ffffffffffffffffffffffffffffffffffffffff1614151515610a8157600080fd5b6000809054906101000a900473ffffffffffffffffffffffffffffffffffffffff1673ffffffffffffffffffffffffffffffffffffffff168273ffffffffffffffffffffffffffffffffffffffff1614151515610add57600080fd5b816000806101000a81548173ffffffffffffffffffffffffffffffffffffffff021916908373ffffffffffffffffffffffffffffffffffffffff1602179055506000809054906101000a900473ffffffffffffffffffffffffffffffffffffffff1673ffffffffffffffffffffffffffffffffffffffff163373ffffffffffffffffffffffffffffffffffffffff167fa1d2149652d81eb35c360c115fc7ac594124cb1ea8a5a33e9a7f5768c62869fb60405160405180910390a360019050919050565b6000811515600060149054906101000a900460ff16151514151515610bc557600080fd5b81600060146101000a81548160ff021916908315150217905550600060149054906101000a900460ff1615153373ffffffffffffffffffffffffffffffffffffffff167fae0f86d9801b0bd39a2ce25d9fd1f202f2fd22e80150be4a99adb0275a635d6c60405160405180910390a360019050919050565b60008060008060008060008060008060149054906101000a900460ff16151515610c6657600080fd5b610c708c8c611be7565b975060008814151515610c8257600080fd5b600073ffffffffffffffffffffffffffffffffffffffff168c73ffffffffffffffffffffffffffffffffffffffff1614151515610cbe57600080fd5b600073ffffffffffffffffffffffffffffffffffffffff168b73ffffffffffffffffffffffffffffffffffffffff1614151515610cfa57600080fd5b610d038c6116e4565b8015610d145750610d138b6116e4565b5b1515610d1f57600080fd5b60008a111515610d2e57600080fd5b878a11151515610d3d57600080fd5b610d478c8c61165d565b9650600087111515610d5857600080fd5b600860008d73ffffffffffffffffffffffffffffffffffffffff1673ffffffffffffffffffffffffffffffffffffffff16815260200190815260200160002060008c73ffffffffffffffffffffffffffffffffffffffff1673ffffffffffffffffffffffffffffffffffffffff1681526020019081526020016000209550600094505b89851015610f6d57856000018660010154815481101515610df857fe5b90600052602060002090015493506007600085600019166000191681526020019081526020016000209250610e2b6122f2565b73ffffffffffffffffffffffffffffffffffffffff16630d2ce5228460000160009054906101000a900473ffffffffffffffffffffffffffffffffffffffff166040518263ffffffff167c0100000000000000000000000000000000000000000000000000000000028152600401808273ffffffffffffffffffffffffffffffffffffffff1673ffffffffffffffffffffffffffffffffffffffff168152602001915050602060405180830381600087803b1515610ee857600080fd5b5af11515610ef557600080fd5b50505060405180519050915060008214151515610f1157600080fd5b610f1a82611baa565b9050600081111515610f2b57600080fd5b6000836002015414151515610f3f57600080fd5b610f4c8b85838a0261231c565b85600101600081548092919060010191905055508480600101955050610ddb565b6001985050505050505050509392505050565b60003373ffffffffffffffffffffffffffffffffffffffff166000809054906101000a900473ffffffffffffffffffffffffffffffffffffffff1673ffffffffffffffffffffffffffffffffffffffff16141515610fdd57600080fd5b600073ffffffffffffffffffffffffffffffffffffffff168273ffffffffffffffffffffffffffffffffffffffff161415151561101957600080fd5b600260008373ffffffffffffffffffffffffffffffffffffffff1673ffffffffffffffffffffffffffffffffffffffff16815260200190815260200160002060009054906101000a900460ff1615151561107257600080fd5b6001600260008473ffffffffffffffffffffffffffffffffffffffff1673ffffffffffffffffffffffffffffffffffffffff16815260200190815260200160002060006101000a81548160ff0219169083151502179055508173ffffffffffffffffffffffffffffffffffffffff163373ffffffffffffffffffffffffffffffffffffffff167fe8f587f6ae5ef5f7560b94b9369dd242c9de0588c328add1a785044abf837c6d60405160405180910390a360019050919050565b60003373ffffffffffffffffffffffffffffffffffffffff166000809054906101000a900473ffffffffffffffffffffffffffffffffffffffff1673ffffffffffffffffffffffffffffffffffffffff1614151561118a57600080fd5b6000831415151561119a57600080fd5b816003600085815260200190815260200160002054141515156111bc57600080fd5b816003600085815260200190815260200160002081905550823373ffffffffffffffffffffffffffffffffffffffff167f5e168e70d5925560e1407b68dc2495afbc25b36217cc6e4167b2cf3f28a46ef1846040518082815260200191505060405180910390a36001905092915050565b60008060008060008060008060149054906101000a900460ff1615151561125357600080fd5b33955060008673ffffffffffffffffffffffffffffffffffffffff161415151561127c57600080fd5b611285866116e4565b151561129057600080fd5b60006001028860001916141515156112a757600080fd5b6112b08861173a565b94506007600086600019166000191681526020019081526020016000209350600073ffffffffffffffffffffffffffffffffffffffff168460000160009054906101000a900473ffffffffffffffffffffffffffffffffffffffff1673ffffffffffffffffffffffffffffffffffffffff161415151561132f57600080fd5b6113376122f2565b73ffffffffffffffffffffffffffffffffffffffff16630d2ce5228560000160009054906101000a900473ffffffffffffffffffffffffffffffffffffffff166040518263ffffffff167c0100000000000000000000000000000000000000000000000000000000028152600401808273ffffffffffffffffffffffffffffffffffffffff1673ffffffffffffffffffffffffffffffffffffffff168152602001915050602060405180830381600087803b15156113f457600080fd5b5af1151561140157600080fd5b5050506040518051905092506000831415151561141d57600080fd5b61142683611baa565b91506000821415151561143857600080fd5b8360010160009054906101000a900473ffffffffffffffffffffffffffffffffffffffff1673ffffffffffffffffffffffffffffffffffffffff168673ffffffffffffffffffffffffffffffffffffffff161415151561149757600080fd5b60008460020154141515156114ab57600080fd5b6114d98460010160009054906101000a900473ffffffffffffffffffffffffffffffffffffffff168761165d565b905060008111156114fa576114f1868684840261231c565b60019650611652565b600860008560010160009054906101000a900473ffffffffffffffffffffffffffffffffffffffff1673ffffffffffffffffffffffffffffffffffffffff1673ffffffffffffffffffffffffffffffffffffffff16815260200190815260200160002060008773ffffffffffffffffffffffffffffffffffffffff1673ffffffffffffffffffffffffffffffffffffffff16815260200190815260200160002060000180548060010182816115af919061272d565b9160005260206000209001600087909190915090600019169055508573ffffffffffffffffffffffffffffffffffffffff168460010160009054906101000a900473ffffffffffffffffffffffffffffffffffffffff1673ffffffffffffffffffffffffffffffffffffffff1686600019167f739c4108960ded7f9e5e6790da2d3baebfb37959560441b5787b8c70676d873c60405160405180910390a4600296505b505050505050919050565b6000600460008473ffffffffffffffffffffffffffffffffffffffff1673ffffffffffffffffffffffffffffffffffffffff16815260200190815260200160002060008373ffffffffffffffffffffffffffffffffffffffff1673ffffffffffffffffffffffffffffffffffffffff16815260200190815260200160002054905092915050565b6000600260008373ffffffffffffffffffffffffffffffffffffffff1673ffffffffffffffffffffffffffffffffffffffff16815260200190815260200160002060009054906101000a900460ff169050919050565b60008060010282600019161415151561175257600080fd5b8160405180826000191660001916815260200191505060405180910390209050919050565b600080600060076000856000191660001916815260200190815260200160002060000160009054906101000a900473ffffffffffffffffffffffffffffffffffffffff1660076000866000191660001916815260200190815260200160002060010160009054906101000a900473ffffffffffffffffffffffffffffffffffffffff16600760008760001916600019168152602001908152602001600020600201549250925092509193909250565b60008060009054906101000a900473ffffffffffffffffffffffffffffffffffffffff16905090565b600080600061185c612759565b600060149054906101000a900460ff1615151561187857600080fd5b60003373ffffffffffffffffffffffffffffffffffffffff161415151561189e57600080fd5b6118a7866116e4565b15156118b257600080fd5b6118ba6122f2565b73ffffffffffffffffffffffffffffffffffffffff16630d2ce522336040518263ffffffff167c0100000000000000000000000000000000000000000000000000000000028152600401808273ffffffffffffffffffffffffffffffffffffffff1673ffffffffffffffffffffffffffffffffffffffff168152602001915050602060405180830381600087803b151561195357600080fd5b5af1151561196057600080fd5b5050506040518051905092506000831415151561197c57600080fd5b61198583611baa565b91506000821415151561199757600080fd5b816119a0611bdd565b0234101515156119af57600080fd5b600073ffffffffffffffffffffffffffffffffffffffff1660076000876000191660001916815260200190815260200160002060000160009054906101000a900473ffffffffffffffffffffffffffffffffffffffff1673ffffffffffffffffffffffffffffffffffffffff16141515611a2857600080fd5b6060604051908101604052803373ffffffffffffffffffffffffffffffffffffffff1681526020018773ffffffffffffffffffffffffffffffffffffffff1681526020013481525090508060076000876000191660001916815260200190815260200160002060008201518160000160006101000a81548173ffffffffffffffffffffffffffffffffffffffff021916908373ffffffffffffffffffffffffffffffffffffffff16021790555060208201518160010160006101000a81548173ffffffffffffffffffffffffffffffffffffffff021916908373ffffffffffffffffffffffffffffffffffffffff1602179055506040820151816002015590505084600019168673ffffffffffffffffffffffffffffffffffffffff163373ffffffffffffffffffffffffffffffffffffffff167f26213b556e4ae8dd63f1f81f4ea6181803d9a3efcad477cd84dcae45a264c30b346040518082815260200191505060405180910390a46001935050505092915050565b6000600654905090565b600060036000838152602001908152602001600020549050919050565b60008060149054906101000a900460ff16905090565b6000600154905090565b6000611bf16127a7565b600860008573ffffffffffffffffffffffffffffffffffffffff1673ffffffffffffffffffffffffffffffffffffffff16815260200190815260200160002060008473ffffffffffffffffffffffffffffffffffffffff1673ffffffffffffffffffffffffffffffffffffffff16815260200190815260200160002060408051908101604052908160008201805480602002602001604051908101604052809291908181526020018280548015611ccb57602002820191906000526020600020905b81546000191681526020019060010190808311611cb3575b50505050508152602001600182015481525050905080602001518160000151510391505092915050565b600080600560009054906101000a900473ffffffffffffffffffffffffffffffffffffffff1673ffffffffffffffffffffffffffffffffffffffff163373ffffffffffffffffffffffffffffffffffffffff16141515611d5457600080fd5b600073ffffffffffffffffffffffffffffffffffffffff168373ffffffffffffffffffffffffffffffffffffffff1614151515611d9057600080fd5b600560009054906101000a900473ffffffffffffffffffffffffffffffffffffffff1673ffffffffffffffffffffffffffffffffffffffff168373ffffffffffffffffffffffffffffffffffffffff1614151515611ded57600080fd5b600560009054906101000a900473ffffffffffffffffffffffffffffffffffffffff16905082600560006101000a81548173ffffffffffffffffffffffffffffffffffffffff021916908373ffffffffffffffffffffffffffffffffffffffff1602179055508273ffffffffffffffffffffffffffffffffffffffff168173ffffffffffffffffffffffffffffffffffffffff167fa32c4b1f26f0d877f643f7fb9db131f9cebf04d120fe5ada74c0bdfc808dab8360405160405180910390a36001915050919050565b6000803373ffffffffffffffffffffffffffffffffffffffff166000809054906101000a900473ffffffffffffffffffffffffffffffffffffffff1673ffffffffffffffffffffffffffffffffffffffff16141515611f1557600080fd5b6000600654111515611f2657600080fd5b600654905060006006819055503373ffffffffffffffffffffffffffffffffffffffff167f851c9440e522074225f247c12030d8a38be67fbda82238aac95d4a4454647f9d826040518082815260200191505060405180910390a23373ffffffffffffffffffffffffffffffffffffffff166108fc829081150290604051600060405180830381858888f193505050501515611fc157600080fd5b600191505090565b600080600080600080611fdd898989612468565b1515611fe857600080fd5b6001611ff48a8a611be7565b10151561220657600860008a73ffffffffffffffffffffffffffffffffffffffff1673ffffffffffffffffffffffffffffffffffffffff16815260200190815260200160002060008973ffffffffffffffffffffffffffffffffffffffff1673ffffffffffffffffffffffffffffffffffffffff168152602001908152602001600020945060008711151561208857600080fd5b84600001856001015481548110151561209d57fe5b906000526020600020900154935060076000856000191660001916815260200190815260200160002092506120d06122f2565b73ffffffffffffffffffffffffffffffffffffffff16630d2ce5228460000160009054906101000a900473ffffffffffffffffffffffffffffffffffffffff166040518263ffffffff167c0100000000000000000000000000000000000000000000000000000000028152600401808273ffffffffffffffffffffffffffffffffffffffff1673ffffffffffffffffffffffffffffffffffffffff168152602001915050602060405180830381600087803b151561218d57600080fd5b5af1151561219a57600080fd5b505050604051805190509150600082141515156121b657600080fd5b6121bf82611baa565b90506000811115156121d057600080fd5b60008360020154141515156121e457600080fd5b6121f18885838a0261231c565b84600101600081548092919060010191905055505b6001955050505050509392505050565b60003373ffffffffffffffffffffffffffffffffffffffff166000809054906101000a900473ffffffffffffffffffffffffffffffffffffffff1673ffffffffffffffffffffffffffffffffffffffff1614151561227357600080fd5b6000821415151561228357600080fd5b816001541415151561229457600080fd5b816001819055503373ffffffffffffffffffffffffffffffffffffffff167ffa53ebd539f52eb4ef352ffacb2f8f5f8080cd8bb7ebb2f1acab3e1ce4bd65cb836040518082815260200191505060405180910390a260019050919050565b6000600560009054906101000a900473ffffffffffffffffffffffffffffffffffffffff16905090565b60008060008060076000876000191660001916815260200190815260200160002093508360020154925060008311151561235557600080fd5b828510612363576000612367565b8483035b9150828510612376578261237a565b8183035b9050806006600082825401925050819055506000846002018190555085600019168773ffffffffffffffffffffffffffffffffffffffff167fcc28c1c2c2269c01d739ef1a54d12784fe3052b2f228668ba5f4bc862ebe51bc8385604051808381526020018281526020019250505060405180910390a3600082111561245f578360000160009054906101000a900473ffffffffffffffffffffffffffffffffffffffff1673ffffffffffffffffffffffffffffffffffffffff166108fc839081150290604051600060405180830381858888f19350505050151561245e57600080fd5b5b50505050505050565b60003373ffffffffffffffffffffffffffffffffffffffff166000809054906101000a900473ffffffffffffffffffffffffffffffffffffffff1673ffffffffffffffffffffffffffffffffffffffff161415156124c557600080fd5b600073ffffffffffffffffffffffffffffffffffffffff168473ffffffffffffffffffffffffffffffffffffffff161415801561252f5750600073ffffffffffffffffffffffffffffffffffffffff168373ffffffffffffffffffffffffffffffffffffffff1614155b151561253a57600080fd5b612543846116e4565b80156125545750612553836116e4565b5b151561255f57600080fd5b8273ffffffffffffffffffffffffffffffffffffffff168473ffffffffffffffffffffffffffffffffffffffff161415151561259a57600080fd5b81600460008673ffffffffffffffffffffffffffffffffffffffff1673ffffffffffffffffffffffffffffffffffffffff16815260200190815260200160002060008573ffffffffffffffffffffffffffffffffffffffff1673ffffffffffffffffffffffffffffffffffffffff168152602001908152602001600020541415151561262557600080fd5b81600460008673ffffffffffffffffffffffffffffffffffffffff1673ffffffffffffffffffffffffffffffffffffffff16815260200190815260200160002060008573ffffffffffffffffffffffffffffffffffffffff1673ffffffffffffffffffffffffffffffffffffffff168152602001908152602001600020819055508273ffffffffffffffffffffffffffffffffffffffff168473ffffffffffffffffffffffffffffffffffffffff163373ffffffffffffffffffffffffffffffffffffffff167f5b631b37e5dfb698eace7497bcae58e93fac69e007127739fc79109d99c58332856040518082815260200191505060405180910390a4600190509392505050565b8154818355818115116127545781836000526020600020918201910161275391906127c7565b5b505050565b606060405190810160405280600073ffffffffffffffffffffffffffffffffffffffff168152602001600073ffffffffffffffffffffffffffffffffffffffff168152602001600081525090565b60408051908101604052806127ba6127ec565b8152602001600081525090565b6127e991905b808211156127e55760008160009055506001016127cd565b5090565b90565b6020604051908101604052806000815250905600a165627a7a7230582090ca3d772d06f060d0ae067705a2aa39f7b010bd577980ada84d0e72ce67ea3e0029a165627a7a723058206bc814a2949b1f1730402ebb2dca3b1b3c6350746aec506ef042664e915962930029",
  "source": "pragma solidity ^0.4.21;\n\nimport \"./interfaces/RegulatorI.sol\";\nimport \"./Owned.sol\";\nimport \"./TollBoothOperator.sol\";\n\ncontract  Regulator is RegulatorI, Owned {\n\n    mapping(address => uint) public vehicleToType;\n    mapping(address => bool) private operators;\n\n    function Regulator()\n    public\n    {\n\n    }\n\n    function setVehicleType(address vehicle, uint vehicleType)\n    fromOwner\n    public\n    returns(bool success)\n    {\n        require(vehicle != address(0));\n        require(vehicleType != 0);\n        require(vehicleToType[vehicle] != vehicleType);\n\n        vehicleToType[vehicle] = vehicleType;\n        emit LogVehicleTypeSet(msg.sender, vehicle, vehicleType);\n\n        return true;\n    }\n\n    function getVehicleType(address vehicle)\n    constant\n    public\n    returns(uint vehicleType)\n    {\n        return vehicleToType[vehicle];\n    }\n\n    function createNewOperator(address owner, uint deposit)\n    fromOwner\n    public\n    returns(TollBoothOperatorI newOperator)\n    {\n        require(owner != address(0));\n        require(owner != getOwner());\n\n        TollBoothOperator operator = new TollBoothOperator(true, deposit, address(this));\n        operator.setOwner(owner);\n        operators[operator] = true;\n\n        emit LogTollBoothOperatorCreated(msg.sender, operator, owner, deposit);\n        return operator;\n    }\n\n    function removeOperator(address operator)\n    fromOwner\n    public\n    returns(bool success)\n    {\n        require(operator != address(0));\n        require(operators[operator]);\n\n        operators[operator] = false;\n        emit LogTollBoothOperatorRemoved(msg.sender, operator);\n\n        return true;\n    }\n\n    function isOperator(address operator)\n    constant\n    public\n    returns(bool indeed)\n    {\n        return operators[operator];\n    }\n}",
  "sourcePath": "/home/vagrant/DAPPS/contracts/Regulator.sol",
  "compiler": {
    "name": "solc",
    "version": "0.4.21+commit.dfe3193c.Emscripten.clang"
  },
  "schemaVersion": "2.0.0",
  "updatedAt": "2018-07-02T14:38:42.624Z"
}