{
  "contractName": "TollBoothHolder",
  "abi": [
    {
      "constant": false,
      "inputs": [
        {
          "name": "newOwner",
          "type": "address"
        }
      ],
      "name": "setOwner",
      "outputs": [
        {
          "name": "success",
          "type": "bool"
        }
      ],
      "payable": false,
      "stateMutability": "nonpayable",
      "type": "function"
    },
    {
      "constant": true,
      "inputs": [],
      "name": "getOwner",
      "outputs": [
        {
          "name": "",
          "type": "address"
        }
      ],
      "payable": false,
      "stateMutability": "view",
      "type": "function"
    },
    {
      "inputs": [],
      "payable": false,
      "stateMutability": "nonpayable",
      "type": "constructor"
    },
    {
      "anonymous": false,
      "inputs": [
        {
          "indexed": true,
          "name": "previousOwner",
          "type": "address"
        },
        {
          "indexed": true,
          "name": "newOwner",
          "type": "address"
        }
      ],
      "name": "LogOwnerSet",
      "type": "event"
    },
    {
      "anonymous": false,
      "inputs": [
        {
          "indexed": true,
          "name": "sender",
          "type": "address"
        },
        {
          "indexed": true,
          "name": "tollBooth",
          "type": "address"
        }
      ],
      "name": "LogTollBoothAdded",
      "type": "event"
    },
    {
      "anonymous": false,
      "inputs": [
        {
          "indexed": true,
          "name": "sender",
          "type": "address"
        },
        {
          "indexed": true,
          "name": "tollBooth",
          "type": "address"
        }
      ],
      "name": "LogTollBoothRemoved",
      "type": "event"
    },
    {
      "constant": false,
      "inputs": [
        {
          "name": "tollBooth",
          "type": "address"
        }
      ],
      "name": "addTollBooth",
      "outputs": [
        {
          "name": "success",
          "type": "bool"
        }
      ],
      "payable": false,
      "stateMutability": "nonpayable",
      "type": "function"
    },
    {
      "constant": true,
      "inputs": [
        {
          "name": "tollBooth",
          "type": "address"
        }
      ],
      "name": "isTollBooth",
      "outputs": [
        {
          "name": "isIndeed",
          "type": "bool"
        }
      ],
      "payable": false,
      "stateMutability": "view",
      "type": "function"
    },
    {
      "constant": false,
      "inputs": [
        {
          "name": "tollBooth",
          "type": "address"
        }
      ],
      "name": "removeTollBooth",
      "outputs": [
        {
          "name": "success",
          "type": "bool"
        }
      ],
      "payable": false,
      "stateMutability": "nonpayable",
      "type": "function"
    }
  ],
  "bytecode": "0x6060604052341561000f57600080fd5b336000806101000a81548173ffffffffffffffffffffffffffffffffffffffff021916908373ffffffffffffffffffffffffffffffffffffffff1602179055506107b18061005e6000396000f30060606040526004361061006d576000357c0100000000000000000000000000000000000000000000000000000000900463ffffffff1680630bbbcbb21461007257806313af4035146100c35780632c333eab1461011457806350bb553a14610165578063893d20e8146101b6575b600080fd5b341561007d57600080fd5b6100a9600480803573ffffffffffffffffffffffffffffffffffffffff1690602001909190505061020b565b604051808215151515815260200191505060405180910390f35b34156100ce57600080fd5b6100fa600480803573ffffffffffffffffffffffffffffffffffffffff169060200190919050506103b7565b604051808215151515815260200191505060405180910390f35b341561011f57600080fd5b61014b600480803573ffffffffffffffffffffffffffffffffffffffff1690602001909190505061055a565b604051808215151515815260200191505060405180910390f35b341561017057600080fd5b61019c600480803573ffffffffffffffffffffffffffffffffffffffff16906020019091905050610706565b604051808215151515815260200191505060405180910390f35b34156101c157600080fd5b6101c961075c565b604051808273ffffffffffffffffffffffffffffffffffffffff1673ffffffffffffffffffffffffffffffffffffffff16815260200191505060405180910390f35b60003373ffffffffffffffffffffffffffffffffffffffff166000809054906101000a900473ffffffffffffffffffffffffffffffffffffffff1673ffffffffffffffffffffffffffffffffffffffff1614151561026857600080fd5b600073ffffffffffffffffffffffffffffffffffffffff168273ffffffffffffffffffffffffffffffffffffffff16141515156102a457600080fd5b600160008373ffffffffffffffffffffffffffffffffffffffff1673ffffffffffffffffffffffffffffffffffffffff16815260200190815260200160002060009054906101000a900460ff1615156102fc57600080fd5b6000600160008473ffffffffffffffffffffffffffffffffffffffff1673ffffffffffffffffffffffffffffffffffffffff16815260200190815260200160002060006101000a81548160ff0219169083151502179055508173ffffffffffffffffffffffffffffffffffffffff163373ffffffffffffffffffffffffffffffffffffffff167f5b34220b1e6888774f5c1badf295633d5d8d4ae02d5e3019e422b3debfe8967860405160405180910390a360019050919050565b60003373ffffffffffffffffffffffffffffffffffffffff166000809054906101000a900473ffffffffffffffffffffffffffffffffffffffff1673ffffffffffffffffffffffffffffffffffffffff1614151561041457600080fd5b60008273ffffffffffffffffffffffffffffffffffffffff161415151561043a57600080fd5b6000809054906101000a900473ffffffffffffffffffffffffffffffffffffffff1673ffffffffffffffffffffffffffffffffffffffff168273ffffffffffffffffffffffffffffffffffffffff161415151561049657600080fd5b816000806101000a81548173ffffffffffffffffffffffffffffffffffffffff021916908373ffffffffffffffffffffffffffffffffffffffff1602179055506000809054906101000a900473ffffffffffffffffffffffffffffffffffffffff1673ffffffffffffffffffffffffffffffffffffffff163373ffffffffffffffffffffffffffffffffffffffff167fa1d2149652d81eb35c360c115fc7ac594124cb1ea8a5a33e9a7f5768c62869fb60405160405180910390a360019050919050565b60003373ffffffffffffffffffffffffffffffffffffffff166000809054906101000a900473ffffffffffffffffffffffffffffffffffffffff1673ffffffffffffffffffffffffffffffffffffffff161415156105b757600080fd5b600073ffffffffffffffffffffffffffffffffffffffff168273ffffffffffffffffffffffffffffffffffffffff16141515156105f357600080fd5b600160008373ffffffffffffffffffffffffffffffffffffffff1673ffffffffffffffffffffffffffffffffffffffff16815260200190815260200160002060009054906101000a900460ff1615151561064c57600080fd5b60018060008473ffffffffffffffffffffffffffffffffffffffff1673ffffffffffffffffffffffffffffffffffffffff16815260200190815260200160002060006101000a81548160ff0219169083151502179055508173ffffffffffffffffffffffffffffffffffffffff163373ffffffffffffffffffffffffffffffffffffffff167fe8f587f6ae5ef5f7560b94b9369dd242c9de0588c328add1a785044abf837c6d60405160405180910390a360019050919050565b6000600160008373ffffffffffffffffffffffffffffffffffffffff1673ffffffffffffffffffffffffffffffffffffffff16815260200190815260200160002060009054906101000a900460ff169050919050565b60008060009054906101000a900473ffffffffffffffffffffffffffffffffffffffff169050905600a165627a7a72305820267cf2a8812c9c42b2a1393e62d06d79adce4e2465d193ff9439a7414ed20b6b0029",
  "source": "pragma solidity ^0.4.21;\n\nimport \"./interfaces/TollBoothHolderI.sol\";\nimport \"./Owned.sol\";\n\ncontract TollBoothHolder is TollBoothHolderI, Owned {\n    mapping(address => bool) tollBooths;\n\n    function TollBoothHolder()\n    public\n    {\n    }\n\n    function addTollBooth(address tollBooth)\n    fromOwner\n    public\n    returns(bool success)\n    {\n        require(tollBooth != address(0));\n        require(!tollBooths[tollBooth]);\n\n        tollBooths[tollBooth] = true;\n        emit LogTollBoothAdded(msg.sender, tollBooth);\n        return true;\n    }\n\n    function isTollBooth(address tollBooth)\n    constant\n    public\n    returns(bool isIndeed)\n    {\n        return tollBooths[tollBooth];\n    }\n\n    function removeTollBooth(address tollBooth)\n    fromOwner\n    public\n    returns(bool success)\n    {\n        require(tollBooth !=  address(0));\n        require(tollBooths[tollBooth]);\n\n        tollBooths[tollBooth] = false;\n        emit LogTollBoothRemoved(msg.sender, tollBooth);\n        return true;\n    }\n}",
  "sourcePath": "/home/vagrant/DAPPS/contracts/TollBoothHolder.sol",
  "compiler": {
    "name": "solc",
    "version": "0.4.21+commit.dfe3193c.Emscripten.clang"
  },
  "schemaVersion": "2.0.0",
  "updatedAt": "2018-07-02T14:38:41.109Z"
}